:1000000082B0019002E0019B013B0193019B002B18
:10001000F9D102B0704738B51D4C7C20012100F0A9
:1000200025FE00254FF0FF331A4821462380E57056
:1000300001F056F81848214601F052F817482146B9
:1000400001F04EF81648214601F04AF815482146BD
:1000500001F046F87C20294600F008FE284600F012
:1000600025F8012000F022F8002000F04FF80120D0
:1000700000F04CF80C48FFF7C3FF002000F060F8D8
:10008000012000F05DF80848FFF7BAFFECE700BF79
:100090002000002000080140000C01400010014039
:1000A0000014014000180140FFFF0A0080B584B031
:1000B00000AF0346FB71FA7941F68833C0F20003C2
:1000C00053F8223018464FF0010100F0CFFDFA79C5
:1000D00041F68433C0F2000333F81230BB814FF095
:1000E0001003FB734FF00303BB73FA7940F2000374
:1000F000C2F2000353F8222007F10C031046194600
:1001000000F0EEFF07F11007BD4680BD80B483B05C
:1001100000AF0346FB71FA7940F20003C2F200031C
:1001200053F82220F97941F68433C0F2000333F802
:100130001130136107F10C07BD4680BC704700BF4A
:1001400080B483B000AF0346FB71FA7940F200033C
:10015000C2F2000353F82220F97941F68433C0F249
:10016000000333F81130536107F10C07BD4680BC22
:10017000704700BF80B483B000AF0346FB71FA79CB
:1001800040F20003C2F2000353F82220F97940F252
:100190000003C2F2000353F82130D968F87941F620
:1001A0008433C0F2000333F8103081EA0303D360D4
:1001B00007F10C07BD4680BC704700BF80B586B014
:1001C00000AF02460B46FA71BB71FA7941F69C33D7
:1001D000C0F2000353F8223043F0010318464FF0F9
:1001E000010100F043FD4FF00403FB75FA7941F67D
:1001F0009833C0F2000333F81230BB82FA7940F230
:100200000803C2F2000353F8222007F1140310463A
:10021000194600F065FFBB79012B40D1FA7941F610
:100220009433C0F2000333F81230DAB2F97941F6B0
:100230009033C0F2000333F81130DBB21046194698
:1002400001F0D2F9FA7941F6A033C0F2000333F895
:100250001230FB604FF000033B744FF008037B74D7
:100260004FF00103BB7407F10C03184601F052FA7A
:10027000FA7941F6A433C0F2000333F81230DBB24E
:100280003B724FF00F037B724FF00F03BB724FF0C6
:100290000103FB7207F10803184601F093FB07F115
:1002A0001807BD4680BD00BF80B582B000AF0346D1
:1002B000FB71FA7940F20803C2F2000353F82220DE
:1002C000F97941F69833C0F2000333F81130104643
:1002D000194600F0FBFF0346184607F10807BD4624
:1002E00080BD00BF80B400AF41F20003C4F202033E
:1002F00041F20002C4F20202126842F001021A60E6
:1003000041F20002C4F2020241F20003C4F202030D
:10031000596840F20003CFF2FF0301EA0303536080
:1003200041F20003C4F2020341F20002C4F20202ED
:10033000126822F0847222F480321A6041F20003C3
:10034000C4F2020341F20002C4F20202126822F473
:1003500080221A6041F20003C4F2020341F200025B
:10036000C4F20202526822F4FE025A6041F2000313
:10037000C4F2020341F20002C4F20202126822F047
:10038000A0521A6041F20003C4F202034FF47F024C
:100390009A6041F20003C4F202034FF00002DA62F5
:1003A000BD4680BC704700BF80B483B000AF7860AA
:1003B00041F20003C4F2020341F20002C4F202025D
:1003C000126822F480321A6041F20003C4F2020380
:1003D00041F20002C4F20202126822F480221A6082
:1003E0007B68B3F5803F03D0B3F5802F0DD018E0C4
:1003F00041F20003C4F2020341F20002C4F202021D
:10040000126842F480321A600BE041F20003C4F239
:10041000020341F20002C4F20202126842F4A02276
:100420001A6007F10C07BD4680BC704780B582B0EA
:1004300000AF4FF000033B604FF00003BB714FF083
:100440000003FB714FF0310000F01CFD0346FB710F
:100450003B6803F101033B603B68B3F5A06F02D03A
:10046000FB79002BEED04FF0310000F00BFD03467E
:10047000002B03D04FF00103BB7102E04FF00003EB
:10048000BB71BB79184607F10807BD4680BD00BFA8
:1004900080B485B000AF0346FB714FF00003FB60F2
:1004A00041F20003C4F202031B68FB60FB6823F007
:1004B000F803FB60FB794FEAC303FA6842EA0303DF
:1004C000FB6041F20003C4F20203FA681A6007F10C
:1004D0001407BD4680BC704780B483B000AF0346AC
:1004E000FB7140F20003C4F24223FA791A6007F16B
:1004F0000C07BD4680BC704780B485B000AF786003
:1005000039604FF00003FB6041F20003C4F20203C4
:100510005B68FB60FB6823F47413FB607A683B68DC
:1005200042EA0303FA6842EA0303FB6041F2000374
:10053000C4F20203FA685A6007F11407BD4680BC92
:10054000704700BF80B483B000AF0346FB7140F238
:100550006003C4F24223FA791A6007F10C07BD4622
:1005600080BC704780B485B000AF786039604FF0D0
:100570000003FB6041F20003C4F20203DB6AFB608C
:10058000FB6823F4803323F00F03FB607A683B6839
:1005900042EA0303FA6842EA0303FB6041F2000304
:1005A000C4F20203FA68DA6207F11407BD4680BCA0
:1005B000704700BF80B485B000AF78604FF0000393
:1005C000FB6041F20003C4F20203DB6AFB60FB68DC
:1005D00023F0F003FB60FA687B6842EA0303FB60E8
:1005E00041F20003C4F20203FA68DA6207F1140769
:1005F000BD4680BC704700BF80B485B000AF786056
:100600004FF00003FB6041F20003C4F20203DB6A17
:10061000FB60FB6823F47063FB60FA687B6842EA66
:100620000303FB6041F20003C4F20203FA68DA62DA
:1006300007F11407BD4680BC704700BF80B483B08B
:1006400000AF0346FB7140F26803C4F24223FA791B
:100650001A6007F10C07BD4680BC704780B485B0B6
:1006600000AF78604FF00003FB6041F20003C4F27A
:100670000203DB6AFB60FB6823F47043FB60FA68EB
:100680007B6842EA0303FB6041F20003C4F2020309
:10069000FA68DA6207F11407BD4680BC704700BFF4
:1006A00080B483B000AF0346FB7140F27003C4F224
:1006B0004223FA791A6007F10C07BD4680BC7047E7
:1006C00080B485B000AF78604FF00003FB6041F26A
:1006D0000003C4F202035B68FB60FB6823F00303C2
:1006E000FB60FA687B6842EA0303FB6041F20003A7
:1006F000C4F20203FA685A6007F11407BD4680BCD1
:10070000704700BF80B400AF41F20003C4F202039F
:100710005B68DBB203F00C031846BD4680BC704733
:1007200080B485B000AF78604FF00003FB6041F209
:100730000003C4F202035B68FB60FB6823F0F00374
:10074000FB60FA687B6842EA0303FB6041F2000346
:10075000C4F20203FA685A6007F11407BD4680BC70
:10076000704700BF80B485B000AF78604FF00003E1
:10077000FB6041F20003C4F202035B68FB60FB68AC
:1007800023F4E063FB60FA687B6842EA0303FB60E2
:1007900041F20003C4F20203FA685A6007F1140739
:1007A000BD4680BC704700BF80B485B000AF7860A4
:1007B0004FF00003FB6041F20003C4F202035B68E8
:1007C000FB60FB6823F46053FB607B684FEAC30364
:1007D000FA6842EA0303FB6041F20003C4F2020339
:1007E000FA685A6007F11407BD4680BC704700BF25
:1007F00080B483B000AF02460B46FA71BB71BB797F
:10080000002B0FD041F20903C4F2020341F20902A6
:10081000C4F202021278D1B2FA7941EA0202D2B2EB
:100820001A7011E041F20903C4F2020341F2090215
:10083000C4F202021278D1B2FA796FEA0202D2B29D
:1008400001EA0202D2B21A7007F10C07BD4680BC61
:10085000704700BF80B483B000AF786040F2D80327
:10086000C4F242237A681A6007F10C07BD4680BCC7
:10087000704700BF80B485B000AF78604FF00003D0
:10088000FB6041F20003C4F202035B68FB60FB689B
:1008900023F44043FB60FA687B6842EA0303FB6091
:1008A00041F20003C4F20203FA685A6007F1140728
:1008B000BD4680BC704700BF80B483B000AF786095
:1008C00040F2C453C4F242237A681A6007F10C075D
:1008D000BD4680BC704700BF80B483B000AF786075
:1008E00040F2C853C4F242237A681A6007F10C0739
:1008F000BD4680BC704700BF80B483B000AF0346E4
:10090000FB7141F22003C4F202034FF000021A709F
:1009100041F22003C4F202034FF000021A70FB7987
:10092000012B02D0042B08D00EE041F22003C4F2C8
:1009300002034FF001021A7006E041F22003C4F2F4
:1009400002034FF005021A7007F10C07BD4680BC88
:10095000704700BF80B483B000AF0346FB7140F224
:100960008043C4F24223FA791A6007F10C07BD46AE
:1009700080BC704780B483B000AF786041F2000360
:10098000C4F2020341F20002C4F20202116A7A6860
:1009900041EA02021A6207F10C07BD4680BC7047AB
:1009A00080B483B000AF0346FB7140F23C43C4F215
:1009B0004223FA791A6007F10C07BD4680BC7047E4
:1009C00080B48BB000AF78604FF00003BB604FF095
:1009D0000003FB604FF000033B614FF000037B61BD
:1009E0004FF00003BB614FF00003FB614FF00003C9
:1009F0003B624FF000037B6241F20003C4F202034A
:100A00005B6803F00C03BB60BB68042B0BD0082BA6
:100A100010D0002B40F087807A6841F20023C0F2AA
:100A20007A03136085E07A6847F64003C0F27D13CD
:100A300013607EE041F20003C4F202035B6803F43A
:100A40007013FB6041F20003C4F202035B6803F41D
:100A500080333B61FB684FEA9343FB60FB680D2BDF
:100A600004D0FB6803F10203FB6002E04FF00603D1
:100A7000FB603B69002B09D1FA6840F60013C0F215
:100A80003D0303FB02F27B681A6052E041F200036F
:100A9000C4F20203DB6A03F48033BB6141F200035A
:100AA000C4F20203DB6A03F00F0303F10103FB61ED
:100AB000BB69002B0CD147F64003C0F27D13FA69E5
:100AC000B3FBF2F3FA6802FB03F27B681A6030E0D2
:100AD00041F20003C4F20203DB6A03F0F0034FEAC1
:100AE000131303F101033B6241F20003C4F202035A
:100AF000DB6A03F470634FEA132303F102037B62A2
:100B000047F64003C0F27D133A6AB3FBF2F37A6A08
:100B100002FB03F2FB69B2FBF3F3FA6802FB03F298
:100B20007B681A6005E07A6841F20023C0F27A031C
:100B3000136041F20003C4F202035B6803F0F003A8
:100B4000BB60BB684FEA1313BB60BA6840F20C038A
:100B5000C2F200039B5CDBB27B617B681A687B6935
:100B600022FA03F27B685A6041F20003C4F20203E6
:100B70005B6803F4E063BB60BB684FEA1323BB60B0
:100B8000BA6840F20C03C2F200039B5CDBB27B61EB
:100B90007B685A687B6922FA03F27B689A6041F2AB
:100BA0000003C4F202035B6803F46053BB60BB68DC
:100BB0004FEAD323BB60BA6840F20C03C2F20003D1
:100BC0009B5CDBB27B617B685A687B6922FA03F22B
:100BD0007B68DA6041F20003C4F202035B6803F44D
:100BE0004043BB60BB684FEA9333BB60BA6840F2D6
:100BF0001C03C2F200039B5CDBB27B617B68DA689A
:100C00007B69B2FBF3F27B681A6107F12C07BD46E2
:100C100080BC704780B483B000AF78600B46FB7037
:100C2000FB78002B0DD041F20003C4F2020341F225
:100C30000002C4F2020251697A6841EA02025A6172
:100C40000EE041F20003C4F2020341F20002C4F2DA
:100C5000020251697A686FEA020201EA02025A61ED
:100C600007F10C07BD4680BC704700BF80B483B05D
:100C700000AF78600B46FB70FB78002B0DD041F283
:100C80000003C4F2020341F20002C4F202029169BD
:100C90007A6841EA02029A610EE041F20003C4F26E
:100CA000020341F20002C4F2020291697A686FEA1B
:100CB000020201EA02029A6107F10C07BD4680BCFC
:100CC000704700BF80B483B000AF78600B46FB7004
:100CD000FB78002B0DD041F20003C4F2020341F275
:100CE0000002C4F20202D1697A6841EA0202DA61C2
:100CF0000EE041F20003C4F2020341F20002C4F22A
:100D00000202D1697A686FEA020201EA0202DA613C
:100D100007F10C07BD4680BC704700BF80B483B0AC
:100D200000AF78600B46FB70FB78002B0DD041F2D2
:100D30000003C4F2020341F20002C4F20202916A0B
:100D40007A6841EA02029A620EE041F20003C4F2BC
:100D5000020341F20002C4F20202916A7A686FEA69
:100D6000020201EA02029A6207F10C07BD4680BC4A
:100D7000704700BF80B483B000AF78600B46FB7053
:100D8000FB78002B0DD041F20003C4F2020341F2C4
:100D90000002C4F20202D1687A6841EA0202DA6013
:100DA0000EE041F20003C4F2020341F20002C4F279
:100DB0000202D1687A686FEA020201EA0202DA608E
:100DC00007F10C07BD4680BC704700BF80B483B0FC
:100DD00000AF78600B46FB70FB78002B0DD041F222
:100DE0000003C4F2020341F20002C4F202021169DC
:100DF0007A6841EA02021A610EE041F20003C4F28D
:100E0000020341F20002C4F2020211697A686FEA39
:100E1000020201EA02021A6107F10C07BD4680BC1A
:100E2000704700BF80B483B000AF0346FB7140F24F
:100E30004043C4F24223FA791A6007F10C07BD4619
:100E400080BC704780B483B000AF0346FB7140F2B2
:100E50004C03C4F24223FA791A6007F10C07BD462D
:100E600080BC704780B483B000AF0346FB7141F291
:100E70000703C4F20203FA791A7007F10C07BD46A2
:100E800080BC704780B487B000AF0346FB714FF061
:100E90000003FB604FF000033B614FF00003FB7564
:100EA000FB794FEA5313DBB2FB60FB68012B06D1E1
:100EB00041F20003C4F202031B683B610FE0FB68D0
:100EC000022B06D141F20003C4F202031B6A3B610C
:100ED00005E041F20003C4F202035B6A3B61FB7967
:100EE00003F01F03FB60FB683A6922FA03F303F087
:100EF0000103DBB2002B03D04FF00103FB7502E0CE
:100F00004FF00003FB75FB7D184607F11C07BD463B
:100F100080BC704780B400AF41F20003C4F202030A
:100F200041F20002C4F20202526A42F080725A6236
:100F3000BD4680BC704700BF80B485B000AF03469B
:100F4000FB714FF00003FB7341F20003C4F2020394
:100F50009A68FB7902EA0303002B03D04FF00103E8
:100F6000FB7302E04FF00003FB73FB7B184607F1B5
:100F70001407BD4680BC704780B483B000AF034601
:100F8000FB7141F20A03C4F20203FA791A7007F105
:100F90000C07BD4680BC704780B582B000AF78605A
:100FA0007A6840F60003C4F201039A420CD14FF074
:100FB00004004FF00101FFF7DDFE4FF004004FF099
:100FC0000001FFF7D7FE76E07A6840F60043C4F2EE
:100FD00001039A420CD14FF008004FF00101FFF7D6
:100FE000C9FE4FF008004FF00001FFF7C3FE62E0BA
:100FF0007A6841F20003C4F201039A420CD14FF027
:1010000010004FF00101FFF7B5FE4FF010004FF058
:101010000001FFF7AFFE4EE07A6841F20043C4F2F0
:1010200001039A420CD14FF020004FF00101FFF76D
:10103000A1FE4FF020004FF00001FFF79BFE3AE0C9
:101040007A6841F60003C4F201039A420CD14FF0D2
:1010500040004FF00101FFF78DFE4FF040004FF0D0
:101060000001FFF787FE26E07A6841F60043C4F2EC
:1010700001039A420CD14FF080004FF00101FFF7BD
:1010800079FE4FF080004FF00001FFF773FE12E091
:101090007A6842F20003C4F201039A420BD14FF482
:1010A00080704FF00101FFF765FE4FF480704FF044
:1010B0000001FFF75FFE07F10807BD4680BD00BFD6
:1010C00080B500AF4FF001004FF00101FFF752FE75
:1010D0004FF001004FF00001FFF74CFE80BD00BF54
:1010E00080B489B000AF786039604FF00003BB6016
:1010F0004FF00003FB604FF000033B614FF0000333
:101100007B614FF00003BB614FF00003FB613B6864
:10111000DB7803F00F03BB603B68DB7803F0100360
:10112000002B05D03B689B78BA6842EA0303BB609A
:101130003B681B8803F0FF03002B51D07B681B68C2
:10114000BB614FF000033B6144E03B694FF001029B
:1011500002FA03F37B613B681B881A467B6902EA4B
:101160000303FB60FA687B699A422FD13B694FEA1F
:1011700083037B617B694FF00F0202FA03F3FB618B
:10118000FB696FEA0303BA6902EA0303BB617B6987
:10119000BA6802FA03F3BA6942EA0303BB613B6827
:1011A000DB78282B07D13B694FF0010202FA03F2EA
:1011B0007B685A610AE03B68DB78482B06D13B69C3
:1011C0004FF0010202FA03F27B681A613B6903F1F6
:1011D00001033B613B69072BB7D97B68BA691A6089
:1011E0003B681B88FF2B56D97B685B68BB614FF05F
:1011F00000033B6149E03B6903F108034FF0010242
:1012000002FA03F37B613B681B881A467B6902EA9A
:101210000303FB60FA687B699A4232D13B694FEA6B
:1012200083037B617B694FF00F0202FA03F3FB61DA
:10123000FB696FEA0303BA6902EA0303BB617B69D6
:10124000BA6802FA03F3BA6942EA0303BB613B6876
:10125000DB78282B08D13B6903F108034FF001022A
:1012600002FA03F27B685A613B68DB78482B08D1AD
:101270003B6903F108034FF0010202FA03F27B68B5
:101280001A613B6903F101033B613B69072BB2D94A
:101290007B68BA695A6007F12407BD4680BC704775
:1012A00080B483B000AF78607B684FF6FF721A801D
:1012B0007B684FF002029A707B684FF00402DA708C
:1012C00007F10C07BD4680BC704700BF80B485B0F5
:1012D00000AF78600B467B804FF00003FB737B68A8
:1012E0009A687B8802EA0303002B03D04FF00103C6
:1012F000FB7302E04FF00003FB73FB7B184607F122
:101300001407BD4680BC704780B483B000AF7860DE
:101310007B689B689BB2184607F10C07BD4680BCF2
:10132000704700BF80B485B000AF78600B467B800B
:101330004FF00003FB737B68DA687B8802EA0303E3
:10134000002B03D04FF00103FB7302E04FF00003CA
:10135000FB73FB7B184607F11407BD4680BC704742
:1013600080B483B000AF78607B68DB689BB21846BE
:1013700007F10C07BD4680BC704700BF80B483B046
:1013800000AF78600B467B807A887B681A6107F132
:101390000C07BD4680BC704780B483B000AF786056
:1013A0000B467B807A887B685A6107F10C07BD4643
:1013B00080BC704780B483B000AF786013460A46A3
:1013C0007A807B707B78002B03D07A887B681A61E7
:1013D00002E07A887B685A6107F10C07BD4680BC41
:1013E000704700BF80B483B000AF78600B467B804D
:1013F0007A887B68DA6007F10C07BD4680BC7047CD
:1014000080B485B000AF78600B467B804FF48033AA
:10141000FB607B88FA6842EA0303FB607B68FA683A
:101420009A617A887B689A617B68FA689A617B68BE
:101430009B69FB607B689B69FB6007F11407BD46F5
:1014400080BC704780B485B000AF02460B46FA718D
:10145000BB714FF00003FB6040F20003C4F20103D4
:101460001B68FB60FA684FF68073C0F2000302EA63
:101470000303FB60FB794FEA0313FA6842EA0303B4
:10148000FB60BB79FA6842EA0303FB6040F20003A9
:10149000C4F20103FA681A6007F11407BD4680BC64
:1014A000704700BF80B483B000AF0346FB7140F2C9
:1014B0001C03C4F22023FA791A6007F10C07BD4619
:1014C00080BC704780B487B000AF78600B46FB707B
:1014D0004FF00003BB604FF00003FB604FF00003D0
:1014E0003B614FF000037B617B68002B06DA40F222
:1014F0000003C4F20103DB693B6105E040F2000335
:10150000C4F201035B683B617B6803F470234FEA1C
:1015100013437B617B684FEA03434FEA1343BB608D
:101520007B6803F44013B3F5401F10D13B6923F0EF
:1015300070633B6140F20003C4F2010340F2000219
:10154000C4F20102526822F070625A6028E07B689F
:1015500003F48013002B11D07B694FF0030202FAD1
:1015600003F3FB60FB686FEA03033A6902EA0303D3
:101570003B613B6943F070633B6111E07B684FEA7C
:1015800053534FEA0313BA6802FA03F36FEA0303F3
:101590003A6902EA03033B613B6943F070633B61D4
:1015A000FB78002B0BD07B684FEA53534FEA0313B1
:1015B000BA6802FA03F33A6942EA03033B617B68C3
:1015C000002B06DA40F20003C4F201033A69DA6143
:1015D00005E040F20003C4F201033A695A6007F1E2
:1015E0001C07BD4680BC704780B485B000AF024682
:1015F0000B46FA71BB714FF00003FB60BB7903F03F
:1016000003034FEA83034FF00F0202FA03F3FB6078
:1016100040F20003C4F20103BA794FEA9202D2B257
:10162000104640F20002C4F20102B9794FEA91017A
:10163000C9B201F1020152F82110FA686FEA020200
:1016400001EA020100F1020243F8221040F2000315
:10165000C4F20103BA794FEA9202D2B2104640F2C4
:101660000002C4F20102B9794FEA9101C9B201F155
:10167000020152F8211097F807C0BA7902F003026C
:101680004FEA82020CFA02F241EA020100F1020280
:1016900043F8221007F11407BD4680BC704700BF15
:1016A00080B483B000AF786040F2DC03C4F2202342
:1016B0007A681A6007F10C07BD4680BC704700BF0E
:1016C00080B400AF40F20043C4F201034FF00002C7
:1016D0001A6040F20043C4F201034FF000025A6066
:1016E00040F20043C4F201034FF000029A6040F25E
:1016F0000043C4F201034FF00002DA6040F20043FD
:10170000C4F201034FF6FF72C0F20F025A61BD46E8
:1017100080BC704780B485B000AF78604FF00003A4
:10172000FB6040F20043C4F20103FB607B689B79DD
:10173000002B00F0818040F20043C4F2010340F22C
:101740000042C4F2010211687A6812686FEA02026C
:1017500001EA02021A6040F20043C4F2010340F2BF
:101760000042C4F2010251687A6812686FEA02020C
:1017700001EA02025A607B681B79FA681344FB6035
:10178000FB68FA6811687A68126841EA02021A6016
:1017900040F20043C4F2010340F20042C4F20102ED
:1017A00091687A6812686FEA020201EA02029A609E
:1017B00040F20043C4F2010340F20042C4F20102CD
:1017C000D1687A6812686FEA020201EA0202DA60FE
:1017D0007B685B79102B1CD140F20043C4F20103FB
:1017E00040F20042C4F2010291687A68126841EA4C
:1017F00002029A6040F20043C4F2010340F2004248
:10180000C4F20102D1687A68126841EA0202DA6021
:1018100021E040F20043C4F20103FB607B685B7986
:10182000FA681344FB60FB68FA6811687A6812680A
:1018300041EA02021A600EE07B681B79FA681344E1
:10184000FB60FB68FA6811687A6812686FEA020246
:1018500001EA02021A6007F11407BD4680BC704716
:1018600080B483B000AF78607B684FF000021A60EC
:101870007B684FF000021A717B684FF00C025A71BE
:101880007B684FF000029A7107F10C07BD4680BCDF
:10189000704700BF80B483B000AF786040F200436F
:1018A000C4F2010340F20042C4F2010211697A68F5
:1018B00041EA02021A6107F10C07BD4680BC70477D
:1018C00080B485B000AF78604FF00003FB7340F246
:1018D0000043C4F201035A697B6802EA0303002B48
:1018E00003D04FF00103FB7302E04FF00003FB73E2
:1018F000FB7B184607F11407BD4680BC704700BF4C
:1019000080B483B000AF786040F20043C4F20103BA
:101910007A685A6107F10C07BD4680BC704700BF6A
:1019200080B485B000AF78604FF00003FB724FF0D9
:101930000003FB6040F20043C4F201031A687B68B5
:1019400002EA0303FB6040F20043C4F201035A6958
:101950007B6802EA0303002B06D0FB68002B03D050
:101960004FF00103FB7202E04FF00003FB72FB7AC1
:10197000184607F11407BD4680BC704780B483B099
:1019800000AF786040F20043C4F201037A685A6104
:1019900007F10C07BD4680BC704700BF80B483B020
:1019A00000AF78604EF60053CEF200037A6842F042
:1019B000BE6242F42022DA6007F10C07BD4680BC0B
:1019C000704700BF80B487B000AF78604FF000036D
:1019D000FB604FF000033B614FF00F037B617B68BE
:1019E000DB78002B49D04EF60053CEF20003DB68C3
:1019F0006FEA030303F4E0634FEA1323FB60FB6821
:101A0000C3F104033B61FB687A6922FA03F37B614B
:101A10007B685B781A463B6902FA03F3FB607B68DC
:101A20009B781A467B6902EA0303FA6842EA0303D9
:101A3000FB60FB684FEA0313FB604EF20013CEF22B
:101A400000037A6812781146FA68D2B20B4483F820
:101A500000234EF20013CEF200037A6812784FEAA8
:101A60005212D2B27968097801F01F014FF00100DB
:101A700000FA01F143F8221014E04EF20013CEF206
:101A800000037A6812784FEA5212D2B27968097864
:101A900001F01F014FF0010000FA01F102F12002F4
:101AA00043F8221007F11C07BD4680BC704700BFF9
:101AB00080B483B000AF786039604EF60053CEF248
:101AC00000033A6822F0604222F07F02796842EA1D
:101AD00001029A6007F10C07BD4680BC704700BF49
:101AE00080B483B000AF02460B46FA71BB71BB797C
:101AF000002B0DD04EF60053CEF200034EF60052EE
:101B0000CEF200021169FA7941EA02021A610EE08E
:101B10004EF60053CEF200034EF60052CEF2000213
:101B20001169FA796FEA020201EA02021A6107F109
:101B30000C07BD4680BC704780B483B000AF7860AE
:101B40007B68042B0CD14EF21003CEF200034EF250
:101B50001002CEF20002126842F004021A600BE09A
:101B60004EF21003CEF200034EF21002CEF200024B
:101B7000126822F004021A6007F10C07BD4680BC0F
:101B8000704700BF000200011000000010000000BC
:101B90000000000000000000010000000400000040
:081BA000010000000600000036
:101BA8000010014000100140000801400000000042
:101BB80001020304010203040607080902040608D7
:00000001FF
